:020000040000fa
:080000000002040000000000f2
:020000040000fa
:040008007a03000077
:020000040000fa
:04000c007a03000073
:020000040000fa
:040010007a0300006f
:020000040000fa
:040014007a0300006b
:020000040000fa
:040018007a03000067
:020000040000fa
:04001c007a03000063
:020000040000fa
:040020007a0300005f
:020000040000fa
:040024007a0300005b
:020000040000fa
:040028007a03000057
:020000040000fa
:04002c007a03000053
:020000040000fa
:040030007a0300004f
:020000040000fa
:0400340004030000c1
:020000040000fa
:040038007a03000047
:020000040000fa
:04003c007a03000043
:020000040000fa
:040040007a0300003f
:020000040000fa
:040044007a0300003b
:020000040000fa
:04004800520300005f
:020000040000fa
:04004c007a03000033
:020000040000fa
:040050007a0300002f
:020000040000fa
:040054007a0300002b
:020000040000fa
:040058007a03000027
:020000040000fa
:04005c005c03000041
:020000040000fa
:040060007a0300001f
:020000040000fa
:040064007a0300001b
:020000040000fa
:040068007a03000017
:020000040000fa
:04006c007a03000013
:020000040000fa
:040070007a0300000f
:020000040000fa
:040074007a0300000b
:020000040000fa
:040078007a03000007
:020000040000fa
:04007c007a03000003
:020000040000fa
:040080007a030000ff
:020000040000fa
:040084007a030000fb
:020000040000fa
:040088007a030000f7
:020000040000fa
:04008c007a030000f3
:020000040000fa
:040090007a030000ef
:020000040000fa
:04009400260300003f
:020000040000fa
:040098007a030000e7
:020000040000fa
:04009c007a030000e3
:020000040000fa
:0400a0007a030000df
:020000040000fa
:0400a4007a030000db
:020000040000fa
:0400a8007a030000d7
:020000040000fa
:0400ac007a030000d3
:020000040000fa
:0400b0007a030000cf
:020000040000fa
:0400b4007a030000cb
:020000040000fa
:0400b8007a030000c7
:020000040000fa
:0400bc007a030000c3
:020000040000fa
:0400c0007a030000bf
:020000040000fa
:0400c4007a030000bb
:020000040000fa
:0400c8007a030000b7
:020000040000fa
:0400cc007a030000b3
:020000040000fa
:0400d0007a030000af
:020000040000fa
:0400d4007a030000ab
:020000040000fa
:0400d8007a030000a7
:020000040000fa
:0400dc007a030000a3
:020000040000fa
:0400e0007a0300009f
:020000040000fa
:0400e4007a0300009b
:020000040000fa
:0400e8007a03000097
:020000040000fa
:0400ec007a03000093
:020000040000fa
:0400f0007a0300008f
:020000040000fa
:0400f4007a0300008b
:020000040000fa
:0400f8007a03000087
:020000040000fa
:0400fc007a03000083
:020000040000fa
:040100007a0300007e
:020000040000fa
:040104007a0300007a
:020000040000fa
:040108007a03000076
:020000040000fa
:04010c007a03000072
:020000040000fa
:040110007a0300006e
:020000040000fa
:040114007a0300006a
:020000040000fa
:040118007a03000066
:020000040000fa
:04011c007a03000062
:020000040000fa
:040120007a0300005e
:020000040000fa
:040124007a0300005a
:020000040000fa
:040128007a03000056
:020000040000fa
:04012c007a03000052
:020000040000fa
:040130007a0300004e
:020000040000fa
:040134007a0300004a
:020000040000fa
:040138007a03000046
:020000040000fa
:04013c007a03000042
:020000040000fa
:040140007a0300003e
:020000040000fa
:040144007a0300003a
:020000040000fa
:040148007a03000036
:020000040000fa
:04014c007a03000032
:020000040000fa
:040150007a0300002e
:020000040000fa
:040154007a0300002a
:020000040000fa
:040158007a03000026
:020000040000fa
:04015c007a03000022
:020000040000fa
:040160007a0300001e
:020000040000fa
:040164007a0300001a
:020000040000fa
:040168007a03000016
:020000040000fa
:04016c007a03000012
:020000040000fa
:040170007a0300000e
:020000040000fa
:040174007a0300000a
:020000040000fa
:040178007a03000006
:020000040000fa
:04017c007a03000002
:020000040000fa
:040180007a030000fe
:020000040000fa
:040184007a030000fa
:020000040000fa
:040188007a030000f6
:020000040000fa
:04018c007a030000f2
:020000040000fa
:040190007a030000ee
:020000040000fa
:040194007a030000ea
:020000040000fa
:040198007a030000e6
:020000040000fa
:04019c007a030000e2
:020000040000fa
:0401a0007a030000de
:020000040000fa
:0401a4007a030000da
:020000040000fa
:0401a8007a030000d6
:020000040000fa
:0401ac007a030000d2
:020000040000fa
:0401b0007a030000ce
:020000040000fa
:0401b4007a030000ca
:020000040000fa
:0401b8007a030000c6
:020000040000fa
:0401bc007a030000c2
:020000040000fa
:0401c0007a030000be
:020000040000fa
:0401c4007a030000ba
:020000040000fa
:0401c8007a030000b6
:020000040000fa
:0401cc007a030000b2
:020000040000fa
:0401d0007a030000ae
:020000040000fa
:0401d4007a030000aa
:020000040000fa
:0401d8007a030000a6
:020000040000fa
:0401dc007a030000a2
:020000040000fa
:0401e0007a0300009e
:020000040000fa
:0401e4007a0300009a
:020000040000fa
:0401e8007a03000096
:020000040000fa
:0401ec007a03000092
:020000040000fa
:0401f0007a0300008e
:020000040000fa
:0401f4007a0300008a
:020000040000fa
:0401f8007a03000086
:020000040000fa
:0401fc007a03000082
:020000040000fa
:040200007a0300007d
:020000040000fa
:040204007a03000079
:020000040000fa
:040208007a03000075
:020000040000fa
:04020c007a03000071
:020000040000fa
:040210007a0300006d
:020000040000fa
:040214007a03000069
:020000040000fa
:040218007a03000065
:020000040000fa
:04021c007a03000061
:020000040000fa
:040220007a0300005d
:020000040000fa
:040224007a03000059
:020000040000fa
:040228007a03000055
:020000040000fa
:04022c007a03000051
:020000040000fa
:040230007a0300004d
:020000040000fa
:040234007a03000049
:020000040000fa
:040238007a03000045
:020000040000fa
:04023c007a03000041
:020000040000fa
:040240007a0300003d
:020000040000fa
:040244007a03000039
:020000040000fa
:040248007a03000035
:020000040000fa
:04024c007a03000031
:020000040000fa
:040250007a0300002d
:020000040000fa
:040254007a03000029
:020000040000fa
:040258007a03000025
:020000040000fa
:04025c007a03000021
:020000040000fa
:040260007a0300001d
:020000040000fa
:040264007a03000019
:020000040000fa
:100400002f0421000eff27000e01880000000000cd
:10041000000020000000e000020032000001200087
:100420002002880018000700b40007000000e00068
:1004300003003a00407e2100010020000200370046
:100440000000200001002000810f70000200320037
:100450000001eb0012000700100007000000200060
:100460000000e00002003200000002000000000076
:100470004f040700cc0d0200000000005d040700df
:100480000040da000000fe00200020000000e00034
:1004900002003200100020009001880000000600d9
:1004a000a1028800800478000000eb0020003700e3
:1004b0000a054100e284440054a0b4009905ba0042
:1004c000e284440054a0b4009906ba00e2844400d7
:1004d00054a0b4000006eb00476fde00fd07b20039
:1004e000ae018800636ce10003003a000ad8010005
:1004f0000000eb000e003700606ce10008003a00dd
:10050000004deb000a05e800020039003420ec0041
:100510000af0a0008b05e900f9ff3e000400370057
:100520006168e100010032000086eb000b0007006b
:1005300019c7ba000e04e0001905ba0003003a001a
:100540000a00e000daff3a0000000600fe07b200f1
:10055000ae0288008a047800f5ff37000cd0a300b3
:10056000e20f4d001c003b0089027800354dba00b7
:100570000a05e800020039003420ec000af0a0006f
:100580008b05e9000f003200254dba000a05e8008e
:10059000020039003420ec000af0a0008b05e900cd
:1005a000080032000c00e0000600320015cdba0051
:1005b0000a05e800020039003420ec000af0a0002f
:1005c0008b05e9008984e80054a0b4000b00e0002a
:1005d000e2ff3a00000006009902ba00055d7800cb
:1005e0008b05e900f7ff3200c82ade00055d7800c0
:1005f0008b05e900f3ff32000c00e000f1ff320050
:1006000019ddba00eeff37003600f800809fbe000b
:10061000829fbe00849fbe00869fbe000000fa003d
:100620000068a900d9070700fd09070000000000c5
:100630000080fa004f03be004f02be004f01be0013
:100640004f00be003600f900004006003600f800fa
:10065000809fbe00829fbe00849fbe00869fbe001a
:100660000000fa000368a9005080800061808000cb
:1006700061004000e0804800508088006180880070
:100680005d040700000000000080fa004f03be0078
:100690004f02be004f01be004f00be003600f90001
:1006a000004006000000fa000108a9000000000058
:1006b0000080fa0000400600801f78000000fa0069
:1006c00001a8a90000188000b081880010188000df
:1006d000c081880020188000d081880010c0b3003d
:1006e00015f0b700000000000080fa004f0078000d
:1006f000004006000040da000000fe000000050097
:1007000014002000c4033700f4ff2f00c203370099
:100710000001be003c0007000470a70003f0a10028
:100720006509b100160032000d0035006828e100af
:1007300006003500f0ff2f00f1ff27000300e00066
:1007400013003b00010028000000050000004000ed
:10075000818048008502e900fcff3a00080037006c
:10076000f88f420002003c008000eb000000050012
:100770008100d1000080d3008502e800fcff3a0030
:100780000300e00002003b0060001000e080180061
:10079000000006000001be001b0007000470a70057
:1007a00003f0a10003f8a30013003a006509b100ab
:1007b00010003200090035006928e1000200350010
:1007c0000100280000000500000040008180480072
:1007d0008502e900fcff3a0000000600f88f4200a5
:1007e000050035008100d1000080d3008502e800bb
:1007f000fcff3a00000006008000eb00000005004e
:100800006011b8009f033700c70ade00f107b2008d
:10081000f50fb20008003200e1cf420002003200c2
:100820000170a00024000500810f7000010032005b
:100830000408050044000500810f700002003a0022
:10084000140005008502e9000000400081c0480056
:10085000fcff3b000170a0002400050007f8270002
:10086000078361000638e10004003a00f707200022
:10087000878361008703710001003a0003f0a20042
:10088000889fbe008a9fbe008c9fbe00470ade0084
:100890000480a100c71ade000580a100070028001f
:1008a0000785600087856100f70f20000720e100c1
:1008b0009e0032000728e1009c003200010678000b
:1008c0000400e000b4003200f707200087806000d9
:1008d0000170a0000500e000c0003200f707200012
:1008e000878161000370a000050652000f003a00e6
:1008f0000b50e1000b0032000308e10002003a0057
:100900000200e1007e00320002045000838458009f
:10091000040031000001fd008101fd008402fd00a2
:100920008a05fd006044b800210037000520e10081
:1009300005003d000001fd008101fd008402fd0075
:100940008a05fd00050652007a60e10005003500c9
:100950000170a1004722dd00848070008a80700051
:10096000630037006044b800ef02660007ff2f0005
:10097000070666000500e00006003400f083120060
:100980008714dd000511de00071bdd000601710084
:100990008519de007060e10005003500090478006b
:1009a00082047800030178008001eb007006560095
:1009b0000b50e10003003a00020040008380480031
:1009c0000400370060041400e0841c00020058009a
:1009d000838058000188a300060032008100d10006
:1009e0000080d3008984d3000884d3000402e80087
:1009f000270037000178a30025003a000100e0003d
:100a0000030032008186cf00698656000a00370055
:100a10008c0020000000e00004003a00090078008b
:100a2000880478000004eb00700252008086cf003a
:100a30000d0646000c06e9007060e1000600350076
:100a40008000780009007800880478000004eb003a
:100a500070065600700252000c00e0000c003400da
:100a60008c08dd00f00316000703de0086807000ae
:100a70000c00dd00074bde00060070008c4cdd0032
:100a80000743de00868474000c44dd000c02520033
:100a90006120e100200035006101600007002800ae
:100aa00087816400f7ff27008783640007037400d1
:100ab0000300e000060032008203730004003200ed
:100ac0000000e800e08048000188a3000e003a0022
:100ad000f70f20000720e1004a003d000170a1004f
:100ae0004722dd00810072008a8070000000be0095
:100af0004f06be004f05be004f04be0000000600ba
:100b00006000b800faff37008100d1000080d300f8
:100b10000402e800eeff3700040178008901740048
:100b2000a10107008a807000f1ff3700f70107007c
:100b3000070278000001fd008101fd00f3010700bc
:100b400087027800850372000778a3000400320052
:100b50000001fd008101fd0006020700e4ff3700ef
:100b6000850362000768a300080032000b50e10013
:100b700003003200f0ff2f00f1ff2700dcff3700f9
:100b80000001fd008101fd00d9ff37000468a300ca
:100b9000d7ff3200faff3700f8ff27008883600094
:100ba0000b003a000000e00009003a0083036400f3
:100bb00082837300020032000200be00ccff3700c7
:100bc0000b50e100ceff3a000200be00c8ff370024
:100bd00014002000810064003eff3700f8ff27006a
:100be0008883610004003a000200e00002003a003d
:100bf0008c007800beff37001500200083016400e0
:100c000039ff370001f8270000002000810075003f
:100c1000b7ff3700889fbe008a9fbe008c9fbe0032
:100c20001b0020000202be000586680006002800a6
:100c3000060666004709de00f20fb20082003200ad
:100c40000243e80080003200c729de00f30fb20043
:100c50007d0032000343e8007b003200f107b20060
:100c60000170a000f507b2000570a000c708dd0004
:100c70004903de00868070004700dd00c72add00e2
:100c80004923de00868272004722dd000305510001
:100c90000403500085835800030031000000400029
:100ca000818048000a05e9008c1f78008a9fbe00f9
:100cb00004005000858058000402420085824a00ea
:100cc00000004000818048000005eb000004be00e9
:100cd0006033b8000406be000d48e1005600310044
:100ce000110009004dccd8000c01b8000d02b8006d
:100cf0008481410060824a008283530003045c00c7
:100d000084845c0060055d000a00e00025003a0074
:100d1000800578000d40e10049003100880078002e
:100d200007007800110009004d88d8000c01b800b8
:100d30000d02b8008481410060824a006003110006
:100d400083835b0004045c00e0845c000900e00035
:100d500021003a004f01be000300e0002b003200ea
:100d6000e3016000070673008c817100010032000e
:100d7000640070004200de004e5edd000c0070007a
:100d8000c258de0001e0a00083010700cf01780017
:100d9000818071004f06be004f05be004f04be00ab
:100da000000006008c8343000d044c00e0844c00de
:100db00060054d000000e9000a00e000d4ff3200a9
:100dc0008c8343000d044c00e0844c0060054d0012
:100dd0000000e900ceff37000c0343008d834b0079
:100de00060044c00e0844c000000e9000900e000d1
:100df000d8ff32000c0343008d834b0060044c008d
:100e0000e0844c000000e900d2ff37004200de0021
:100e10004e5edd000c007000c258de0001e0a00054
:100e2000cf0178000300e000daff3200600010001c
:100e3000e0801800d7ff3700f0ff2f00aaff37002f
:100e4000f0ff2f00b9ff37000404be002f01070098
:100e5000870678000004fd008104fd002b010700d7
:100e6000078366000678a300030032000960a7002c
:100e70000800be002c0037000d78a30002003200ed
:100e80000800be00280037000778a30026003a00bb
:100e900001f0a10009f0a1000668a30003003200e0
:100ea000f1ff2700f0ff2f00baff37000d68a30005
:100eb000030032000800be008c807000b5ff3700d0
:100ec0000768a30007003a000648a30003003200a9
:100ed000f1ff2700f0ff2f00aeff37000d48a30001
:100ee000030032006000b8008c807000a9ff37005a
:100ef0000748a3000400320001f82700000020008a
:100f00008c807000a3ff3700760107000004fd000d
:100f10008104fd0002057800720107000802be008e
:100f20008a01780059ff37000160a00012022000fa
:100f3000b280880097ff37000100e0001200320005
:100f40000500e00010003200889fbe008a9fbe00ae
:100f50008c9fbe000006eb0001f8a30003003200e6
:100f600060001000e08018000cf0a00005f8a3005d
:100f70000300320060021200e0821a000cf0a200ae
:100f80008005eb0041ff37006000b800020005005b
:100f9000038368000700280007036300470ade0098
:100fa0000480a100c71ade000580a100f70f200011
:100fb0000720e100420032000728e1004000320033
:100fc000889fbe008a9fbe008c1f7800f107b20088
:100fd000f307b2000400e000640032000170a000da
:100fe0000500e000680032000370a00085054200a3
:100ff000eb07b1000204b8000302b8008484440087
:1010000060854a00020ab800848444000a854a00c8
:10101000030ab80004054500040033000804d000aa
:101020008984d2000a85d2008b05e9006158e1006d
:101030003d00350002102000090161000308200076
:1010400089816100f70720008783640008867300a8
:10105000c84cde00c853dd00878474004855de00ac
:101060000300e00006003200820376000400320034
:101070008904e80060054d000a88a3000c003a00ce
:10108000f70f20000758e10044003d000a70a1005e
:10109000c75ddd000a8575008a00730009007800cd
:1010a0004f0678004f05be004f04be00000006004a
:1010b0000a05d1008984d3008b05e800f0ff3700d2
:1010c000881f780006047800900007000702780067
:1010d0000001fd008101fd008c00070087027800ff
:1010e000850372000778a300050032000001fd00af
:1010f0008101fd009f0007004f04780000000600fa
:10110000850372000748a30003003200f0ff2f00a0
:10111000f1ff2700f8ff37000000200001f827004a
:1011200088807000f4ff3700880178004848dd00af
:10113000808171004848de00c850dd000100700069
:10114000c850de00060478000b0178001600070086
:1011500088807000d2ff37000500e00005003200f3
:10116000170020003a0007009dff37008103700040
:10117000f9ff3a00860078004f0678004f05be0060
:101180004f04be000000050083037100f9ff320028
:10119000270020002e00070094ff370001f82700e9
:1011a00086807000f4ff37000100e0002600320066
:1011b000610111007810e10023003c006022b800ba
:1011c0007010e10004003500800278000100780012
:1011d0008000eb00700151000200e00009003400c3
:1011e00070031100062add00822ade008603dd007e
:1011f000878272000200de00860bdd0007007000af
:101200008208de0084817100f4ff270004826200fe
:101210008481710004002800848262006102600001
:1012200005f0a600000006000482710007003200ed
:101230000000e800e0804800000006000002be0058
:101240006000b800efff37006000b8000000060043
:10125000889fbe000004eb006138e10016003a00f0
:101260000100e00008003a00c800de004800dd0090
:10127000880020000100e00003003a00c800de0002
:101280004800dd00680444008184cf00e9845400f4
:10129000060034008908dd00f08314008703de00b7
:1012a000878070000900dd00090444006102140019
:1012b0004f04be00000006000300e00008003a00f2
:1012c000c811de004811dd00880020000300e000a6
:1012d00003003a00c811de004811dd006804440034
:1012e0008384cf00e9845400060034008919dd00ae
:1012f000f08314008713de00878171000911dd007f
:1013000009044400e1021400e9ff3700270020002f
:1013100001f0a70017002000470bde00f60fb20017
:10132000040032000643e8000a0032004702b3001e
:101330000000060001037800f607b2000603700003
:1013400002003a000703b300000006008702b30062
:101350000000060001037800f607b20006037000e3
:10136000020032000770a000000006000760a00025
:10137000000006000478a300040032000578a300f2
:10138000030032000168a30001003a000200be0021
:101390000160a000000006008101700027003200fb
:1013a0008002eb0001f8a30003003200600010008f
:1013b000e080180015002000f4072000020242001f
:1013c00020003400f703200087036000060420009b
:1013d0000003630002082000000161004700de00f6
:1013e000c909dd0000807100c708de000600e000ca
:1013f0000800320087037100060032001000b000c0
:101400000180b0000188a30002003200c108de00a4
:101410000402e800f107b200f30f20000320e1000e
:1014200003003d004722dd008100720029003700e3
:1014300001f827000000eb00260037006000b8002c
:1014400000000600680212007f20e1000200340064
:101450006000b8001f0037006011b8007020e10084
:101460000400350080017800010078008000eb0066
:10147000700252000400e00009003400f003120082
:101480000719dd008419de000703dd008681710085
:101490000400de00070bdd00060070008408de009b
:1014a000f7ff27008383630087037100060028008d
:1014b00003036300070032000700e00003003a0066
:1014c0006101600002817300020032001000b00070
:1014d0000180b0000500a6000000060001f0a00099
:1014e000000006004f0ade004709de00f107b200e7
:1014f000f20fb2000b003200f207b1000170a00041
:10150000c708dd00c901de00838070004700dd00f0
:101510000400a6000000060060001000e080180033
:1015200000000600810f700001003a000000060074
:101530008182cf000500e00010003e008082cf00d5
:10154000ee8242007028e1000400390007003e00ee
:10155000800078000000eb000e003700708312005e
:101560008600de000500dd000a00370070835200af
:101570008600dd000000eb0006003700e28252002a
:101580008508dd00708312000603de00868070008f
:101590000500dd007507b0000501ea000400a600a3
:1015a0000000060060001000e08018000000060047
:1015b000889fbe008a9fbe005400f8000a002000e9
:1015c0000a00e000070032000900200008002000a7
:1015d000a9028800b805ba000b0001000a85e900dd
:1015e000fcff3c005400f9004f05be004f04be0054
:1015f00000000600889fbe008a9fbe005400f800cd
:101600000a0020000a00e000f6ff32000900200076
:1016100008002000eeff3700889fbe008a9fbe00b2
:10162000841f78006c0007004f0078001100330021
:10163000f0ff2f00838f6c0006003b00040565005f
:101640000a00a7000800370009f0a60010002000db
:1016500008003700820f5400838f5c0003003900bc
:101660001000200001003e000000200009f0a7004b
:101670000000ea004f05be004f04be000000e0007d
:1016800000000600889fbe008a9fbe000082700096
:101690000402710004827100260032000004be00c2
:1016a0000200be006011b8006b0920009502200006
:1016b0000182cf000a0039000541b1000082cf004d
:1016c000070039000541b1000982cf00040039004c
:1016d0000541b1000882cf00010039000541b10089
:1016e00005425200120032000a003b008281710064
:1016f000610164008100d1000080d3008984d3009f
:101700000884d3008b05e8000442e800f7ff3a00a4
:10171000070037000804440089844c00000048009a
:10172000818048008b05e9000442e900f9ff3a0096
:10173000030007004f05be004f04be000000060076
:1017400081002000618055000b003d000b0020004f
:1017500061fe2f000100e1001d0034008281710054
:10176000610164008904d1000884d3000000e8000e
:10177000faff3a007100200061006400030070006d
:10178000020060000900320061044400e0844c0063
:101790000988a500050032008b05e8006808e10013
:1017a00002003a008904d1000884d300f20f20001f
:1017b0000258e10005003d00c75ddd00f907b200f9
:1017c0008980750008007800000006000bf82700eb
:1017d0008b007800000005000004be000afc070032
:1017e0000003be000405be000200be0006fc0700a8
:0817f000844f750000000600a3
:020000040000fa
:1017f8000000fa0012d0bf000080fb006100b900b1
:101808000001be00b000200001002000800f510040
:10181800818f590060003e00020601000b0037006e
:10182800140037001d003700270037002800370054
:1018380031003700320037003b0037003c003700ea
:101848004600370047003700510037000a30ef00e4
:101858000c30ef0022c0b3006000b8009c05070000
:1018680012c0b3006000b8009905070010c0b300ab
:1018780012f0b7005280800063808000803e200014
:1018880001002000800f5100818f5900440036006c
:1018980020c0b30012f0b7004100370022c0b300e7
:1018a80000002000811c24008905070012c0b30035
:1018b80000002000811c24008505070030c0b3000b
:1018c80012f0b7003700370039000700350037003d
:1018d80022c0b30000002000811c24007c05070002
:1018e80012c0b3006000b8007905070050c0b3000b
:1018f80012f0b7002b0037002d0007002900370031
:1019080022c0b3006000b8007105070012c0b30020
:1019180000002000811c24006d05070070c0b30082
:1019280012f0b7001f003700210007001d00370024
:1019380022c0b30000002000811c240064050700b9
:1019480012c0b30000002000811c2c0060050700b5
:1019580090c0b30012f0b70012003700140007005f
:101968001000370022c0b30000002000811c2c00aa
:101978005705070012c0b30000002000811c240096
:1019880053050700b0c0b30012f0b70005003700d8
:1019980007000700030037001270ef00010037004e
:1019a80000000000000000000080fa0000000600af
:1019b8000200fa000040eb00004f780050818000e0
:1019c8006181800002002000031f24004afb0700f9
:1019d8000000e00011003d007081800081818000de
:1019e80002002000031a240045fb07000000e00065
:1019f8000a00340090818000a1818000020020004c
:101a0800031f24003efb07000000e0000300340031
:101a180020c0b300004f78003900370050818000a3
:101a28006181800002002000031f240034fb0700ae
:101a38000000e00011003400708180008181800086
:101a480002002000031a24002dfb07000000e0001c
:101a58000a00340090818000a181800002002000eb
:101a6800031f240024fb07000000e00003003d00e2
:101a780010c0b300004f780021003700708180004b
:101a88008181800002002000031a24001afb07004d
:101a98000000e00003003d0030c0b300004f7800b4
:101aa800170037005081800061818000020020000b
:101ab800031f240012fb07000000e00010003400a0
:101ac800708180008181800002002000031a2400b8
:101ad8000bfb07000000e000090034009081800043
:101ae800a181800002002000031f240004fb0700de
:101af8000000e000020034000040eb00004f7800d6
:101b08008040eb009ecf100003003a0020c0b300d5
:101b180013f0b7001100370021c0b3009ecf1000aa
:101b280003003a0040c0b30013f0b7000b003700c1
:101b380011c0b3009ecf100003003a0060c0b3008c
:101b480013f0b7000500370031c0b3009ecf100076
:101b580002003a0080c0b30013f0b70013d0bf00f2
:101b68000080fb0021012100914078008180fb006a
:101b78008100e900810f50000200320013d0bf003d
:101b880012f0b700000000000080fa000000060014
:101b98000600fa00881f780015040700e204070011
:101ba800af04070045020700500207005b02070068
:101bb8005d04070084cea90084aea900848ea90024
:101bc800856ea900754ea900854ea8009b040700e4
:101bd8000004e000af0032009c04070093040700f3
:101be800000f78001e007800100078008000eb00dd
:101bf80001fb07003233230033052400e2fc070011
:101c08000001780001007800820278000002780064
:101c180002002000035824000500780084007800a2
:101c28000000be00f9fb0700100798002107980084
:101c38001e019000ae0190000000200081202400c9
:101c4800f2fb0700000178000100780082027800aa
:101c58000002780002002000030a24000500780032
:101c6800840078000000be00fafa070080017800be
:101c78000101780003007800820078000000be00af
:101c880090818800a181880090818000a1818000d6
:101c980018c0b30002002000031f240098fa0700b0
:101ca8000000e00001003c000044eb000880fb005d
:101cb800610060004600dd00217480000160a10021
:101cc80001007000207488001e80e8001000780071
:101cd8008000eb00c8fa07003233230033052400e4
:101ce800a9fc070000017800010078008202780052
:101cf8000002780002002000035824000500780044
:101d0800840078000000be00c0fb070010079800a0
:101d1800210798001e019000ae01900000002000ed
:101d280081202400b9fb0700000178000100780039
:101d3800820278000002780002002000030a2400d2
:101d480005007800840078000000be00c1fa070092
:101d58008001780001017800030078008200780093
:101d68000000be0070818800818188007081800039
:101d78008181800018c0b30002002000031f2400e6
:101d88005ffa07000000e00001003c000044eb009f
:101d98000880fb00610060004500dd0021748000c0
:101da8000150a1000100700020748800410020004b
:101db8001e804000100078008000eb008efa0700bb
:101dc80032332300330524006ffc0700000178003c
:101dd80001007800820278000002780002002000ea
:101de8000358240005007800840078000000be0035
:101df80086fb070010079800210798001e01900035
:101e0800ae01900000002000812024007ffb070025
:101e18000001780001007800820278000002780052
:101e280002002000030a24000500780084007800de
:101e38000000be0087fa07008001780001017800e1
:101e480003007800820078000000be0050818800fe
:101e580061818800508180006181800018c0b300d2
:101e680002002000031f240025fa07000000e000fc
:101e780001003c000044eb000880fb0061006000aa
:101e88004400dd00217480000140a10001007000c1
:101e98002074880030818000418180000200200089
:101ea800831c2c0014fa07000000e00009003c0025
:101eb800f08080000181800002002000831c240043
:101ec8000ffa07000000e00002003500754ea80078
:101ed80001003700754ea9003cff37000400fa00e6
:101ee800008fbe00200880000040a1000050a10023
:101ef8002008880070808000818080003efa0700fa
:101f08001e0178009e01900040fb07000001780048
:101f180001007800820278000002780002f02f00a9
:101f2800f377240005007800840078000000be00e4
:101f3800f3f907000000e000920034002008800058
:101f48000040a0000050a100200888007080800098
:101f58008180800028fa07001e0178009e01900009
:101f68002afb07000001780001007800820278004f
:101f78000002780002002000031024000500780009
:101f8800840078000000be0020fb070000017800f4
:101f980001007800820278000002780002f02f0029
:101fa800f377240005007800840078000000be0064
:101fb800d3f907000000e000580034002008800032
:101fc8000040a1000050a000200888007080800018
:101fd8008180800008fa07001e0178009e019000a9
:101fe8000afb0700000178000100780082027800ef
:101ff8000002780002002000032824000500780071
:10200800840078000000be0000fb07000001780093
:1020180001007800820278000002780002f02f00a8
:10202800f377240005007800840078000000be00e3
:10203800b3f907000000e0001e003400200880000b
:102048000040a0000050a000200888007080800098
:1020580081808000e8f907001e0178009e01900049
:10206800eafa07000001780001007800820278008f
:1020780000027800020020000338240005007800e0
:10208800840078000000be00e0fa07000001780034
:1020980001007800820178000001780003007800d0
:1020a800820078000000be0097f907001008880039
:1020b800430037007080800081808000cef90700df
:1020c8001e0178009e019000d0fa070000017800f8
:1020d80001007800820278000002780002002000e7
:1020e8000328240005007800840078000000be0062
:1020f800c6fa070000017800010078008201780024
:102108000001780003007800820078000000be001b
:102118007df90700100888002900370070808000ca
:1021280081808000b4f907001e0178009e019000ac
:10213800b6fa0700000178000100780082027800f2
:102148000002780002002000031024000500780037
:10215800840078000000be00acfa07000001780097
:1021680001007800820178000001780003007800ff
:10217800820078000000be0063f90700100888009c
:102188000f00370070808000818080009af9070076
:102198001e0178009e0190009cfa0700000178005b
:1021a80001007800820178000001780003007800bf
:1021b800820078000000be0053f90700100888006c
:1021c800000000000080fa00000006000400fa0089
:1021d800008fbe00f00880000040a1000050a10060
:1021e800f0088800708080008180800082f90700f4
:1021f8001e0178009e01900084fa07000001780013
:1022080001007800820278000002780002f02f00b6
:10221800f377240005007800840078000000be00f1
:1022280037f907000000e00092003400f008800051
:102238000040a0000050a100f008880070808000d5
:10224800818080006cf907001e0178009e019000d3
:102258006efa070000017800010078008202780019
:102268000002780002002000031024000500780016
:10227800840078000000be0064fa070000017800be
:1022880001007800820278000002780002f02f0036
:10229800f377240005007800840078000000be0071
:1022a80017f907000000e00058003400f00880002b
:1022b8000040a1000050a000f00888007080800055
:1022c800818080004cf907001e0178009e01900073
:1022d8004efa0700000178000100780082027800b9
:1022e800000278000200200003282400050078007e
:1022f800840078000000be0044fa0700000178005e
:1023080001007800820278000002780002f02f00b5
:10231800f377240005007800840078000000be00f0
:10232800f7f807000000e0001e003400f008800005
:102338000040a0000050a000f008880070808000d5
:10234800818080002cf907001e0178009e01900012
:102358002efa070000017800010078008202780058
:1023680000027800020020000338240005007800ed
:10237800840078000000be0024fa070000017800fd
:1023880001007800820178000001780003007800dd
:10239800820078000000be00dbf80700d008880043
:1023a80043003700708080008180800012f90700a8
:1023b8001e0178009e01900014fa070000017800c1
:1023c80001007800820278000002780002002000f4
:1023d8000328240005007800840078000000be006f
:1023e8000afa0700000178000100780082017800ed
:1023f8000001780003007800820078000000be0029
:10240800c1f80700d00888002900370070808000d4
:1024180081808000f8f807001e0178009e01900076
:10242800faf90700000178000100780082027800bc
:102438000002780002002000031024000500780044
:10244800840078000000be00f0f907000001780061
:10245800010078008201780000017800030078000c
:10246800820078000000be00a7f80700d0088800a6
:102478000f0037007080800081808000def8070040
:102488001e0178009e019000e0f907000001780025
:1024980001007800820178000001780003007800cc
:1024a800820078000000be0097f80700d008880076
:1024b800000000000080fa00000006000000fa009a
:1024c80005e1a900000020008124240083fe070004
:1024d8000421a9000068a9002068a80005e1a80057
:1024e800000000000080fa00000006000000fa006a
:1024f8001fe1a90000002000a147240033ff0700c6
:102508001e21a9000368a9002368a8001fe1a800ec
:10251800000000000080fa00000006000000fa0039
:1025280013e1a90011e1a9001061a8001021a90078
:10253800800880000040a1000050a10080088800a9
:102548000a21ef000621ef003039200070088800ca
:102558000070280060088800204280000000a00069
:102568000010a1000020a100204288000108a90055
:102578002108a80011e1a800000000000080fa006e
:10258800000006000000fa00889fbe00f48080006a
:1025980005818000d0808000e18080000001be00bd
:1025a8000400be0054f807000000e00014003d00dd
:1025b800d8808000e9808000f48080000581800058
:1025c80000808000118080000001be000400be0071
:1025d800a9f807000001780001007800820278005d
:1025e800000278000801be00050078008400780029
:1025f8000000be000d010700f080880001818800fe
:10260800f480800005818000d0808000e180800017
:102618000001be000400be0039f807000000e00019
:1026280014003400d8808000e9808000f4808000a5
:102638000581800000808000118080000001be00bc
:102648000400be0083f8070000017800010078004c
:1026580082027800000278000801be0005007800b8
:10266800840078000000be00d9000700f0808800d0
:1026780001818800f0808000018180006011b8002d
:102688001ff807000000e0001e003500f080800001
:102698000181800002002000031c24003afa070090
:1026a80000017800010078008202780000027800ba
:1026b80020808000318080000001be000500780085
:1026c800840078000000be006bf807000001780065
:1026d800010078008201780000017800030078008a
:1026e800820078000000be0028f8070030618800ea
:1026f800208080003180800024f807007061880005
:102708001e00370020808000318080001ff80700fd
:1027180030618800f08080000181800001f0a20013
:1027280002002000031c240017fa070000017800ab
:102738000100780082027800000278002080800082
:10274800318080000001be00050078008400780018
:102758000000be0048f8070000017800010078007a
:102768008201780000017800030078008200780078
:102778000000be0005f80700706188003481800001
:102788004581800010818000218180000001be0009
:102798000400be00d8f707000000e00014003d0068
:1027a8001881800029818000348180004581800063
:1027b80000808000118080000001be000400be007f
:1027c8002df80700000178000100780082027800e7
:1027d800000278000801be00050078008400780037
:1027e8000000be0091000700308188004181880008
:1027f8003481800045818000108180002181800023
:102808000001be000400be00bdf707000000e000a4
:1028180014003400188180002981800034818000f0
:102828004581800000808000118080000001be008a
:102838000400be0007f807000001780001007800d6
:1028480082027800000278000801be0005007800c6
:10285800840078000000be005d0007003081880019
:102868004181880030818000418180006011b8007a
:10287800a3f707000000e0001e003500308180004b
:102888004181800002002000031c2400bef90700db
:1028980000017800010078008202780000027800c8
:1028a80020808000318080000001be000500780093
:1028b800840078000000be00eff7070000017800f0
:1028c8000100780082017800000178000300780098
:1028d800820078000000be00acf707003062880074
:1028e8002080800031808000a8f70700706288008f
:1028f8001e0037002080800031808000a3f7070089
:1029080030628800308180004181800001f0a2009f
:1029180002002000031c24009bf907000001780036
:102928000100780082027800000278002080800090
:10293800318080000001be00050078008400780026
:102948000000be00ccf70700000178000100780005
:102958008201780000017800030078008200780086
:102968000000be0089f707007062880000000000c0
:102978004f04be000080fa00000006000400fa00c0
:10298800008fbe006011b8001e0078009e00900005
:102998005bf707000000e000030035001e00780028
:1029a8009e009000030037001e0078009e009000f3
:1029b80001f0a2008001780001017800030078008e
:1029c800820078000000be000080fa0000000600c7
:1029d8000800fa00008fbe0022079800330798000d
:1029e8002e019000be0190001e0078009e0090000d
:1029f80043f707000000e000030034009e00780061
:102a08001e00900002003700ae0090003e009000cb
:102a180081017800000178000300780082007800c6
:102a28000000be000080fa00000006000800fa005e
:102a3800008fbe0022079800330798002e019000ef
:102a4800be0190001e0078009e0090002af7070043
:102a58000000e00003003d009e0078001e0090008a
:102a680002003700ae0090003e009000810178001f
:102a78000001780003007800820078000000be00a2
:102a88000080fa00000006000c00fa00008fbe006b
:102a980022079800330798004407980055079800c4
:102aa8004e019000de0190001e0078009e0090000c
:102ab80013f707000000e000040034004e01900006
:102ac800de019000028fbe000a0037002e01900040
:102ad800be0190001e0078009e00900006f70700d7
:102ae8000000e00003003d002e019000be019000b0
:102af800028fbe009e0078001e00900081017800c1
:102b08000001780003007800820078000000be0011
:102b18000080fa00000006000400fa00008fbe00e2
:102b2800b2fd2000930424001e0078009e0090004f
:102b380036f807000001780001007800820278006a
:102b480000027800020020004333240005007800ca
:102b5800840078000000be000bf90700000178002f
:102b68000100780082007800810178000001780077
:102b780003007800820078000000be000080fa00a0
:102b8800000006000400fa00008fbe00b2fd20001d
:102b9800930424001e0078009e009000faf80700b5
:102ba80000017800010078008202780000027800b5
:102bb80002002000433324000500780084007800d8
:102bc8000000be0011f8070000017800010078003d
:102bd8008200780081017800000178000300780005
:102be800820078000000be000080fa0000000600a5
:102bf8000000fa00817420009140780000ccb300f6
:102c080000c060007041b30048e7b700313a800067
:102c180000e02f0080806000800520000100700027
:102c2800303a8800203a80000060a1000070a100be
:102c3800203a8800213a800000fe2f0000806000c2
:102c48000000a000203a880012c0b30080c7b3007b
:102c5800a1c9b30033742000804978008149780005
:102c680082497800103a80000040780000417800de
:102c78000204a00060c4b30071c5b300237420002f
:102c88008049780081497800824978000000000076
:102c9800103a80004c00de0067406000e14f5000b1
:102ca800fbff3a005927a800c03a80000000a000a6
:102cb8000010a1000020a100c03a88005ac7bf0038
:102cc8000000a0000010a0000020a0005ae7b700f4
:102cd800c03a80000050a1000060a0000070a00071
:102ce800c03a880059a7a80059e7a80000000000ca
:102cf800c03a80004e00de0061406000e14f5000a5
:102d0800fbff3a0000000000103a80004500de009a
:102d180061406000e14f5000fbff3a0000000000f6
:102d28000080fa00000006000000fa0021e3a90074
:102d38002143a800001980000080a1000090a10094
:102d4800001988002043a900001980000050a00045
:102d58000060a0000070a000001988001019800011
:102d680000d0a10000e0a10000f0a1001019880027
:102d78002343a800101980000080a1000090a10042
:102d8800101988001119800030f82f0000806000a9
:102d98000030a000101988002203a9002223a900ee
:102da80025e3a9002119800000f02f0000806000b1
:102db800f000b3002019880021198000f00f2e00c0
:102dc8008080600000f02000010070002019880059
:102dd8003303a9001f0ea8001f2ea8001f4ea8002d
:102de8003103a8003123a8003143a800411980000d
:102df80000fe2f00008060004019880028e3a90029
:102e080001a8a90021a8a80021e3a800000000004b
:102e18000080fa00000006000000fa002023a80045
:102e2800000000000080fa00000006000000fa0020
:102e3800600321000080fa00000006000000fa008c
:102e480015d0bf000080fa00000006000000fa005c
:102e58001570ef00000000000080fa000000060076
:102e68000000fa0002ccbf000000a1000010a10081
:102e78000020a10002ecb700009620002060880026
:102e88001061800000a0a00000b0a00010618800c0
:102e980023cca80023eca800300020002061880083
:102ea8001062800000a0a00000b0a000106288009e
:102eb80043cca80043eca800300020002062880022
:102ec80001eca800000000000080fa0000000600e5
:102ed8000600fa00008fbe00424798004e4090005e
:102ee800e14f500005003a001e0178009e01900055
:102ef800d2808800e3808800080037004e409000a8
:102f0800e24f500005003a001e0078009e00900035
:102f180001f0a200108188002181880000000000d3
:102f28000080fa00000006000000fa000e2eef00f4
:102f38001e2eef003e2eef002e2eef004e2eef003d
:102f48006e2eef0080cea90080aea900808ea90069
:102f5800816ea900714ea900814ea9000e000700dc
:102f680003000700000000000080fa0000000600cf
:102f78000000fa002174200062042000730520007c
:102f8800824878008348780042c7a8000000000003
:102f98000080fa00000006000000fa0021742000fa
:102fa8006204200073052000824878008348780076
:102fb80042c7a900000000000080fa0000000600d7
:020000040000fa
:102fc800121000000200000080000000081000003d
:102fd80006000000800000000e1000000400000041
:102fe8008200000000879300030000001810000012
:102ff8001e00000080000000001000000800000013
:103008008200000000004800420000004842000022
:10301800361000000a0000008000000014100000b4
:1030280002000000800000004010000002000000c4
:1030380082000000010000001610000002000000dd
:08304800800000000000000000
:020000040000fa
:0200000401f009
:04000800cfffff0027
:020000040000fa
:0200000401f009
:04000c00f9ffff00f9
:020000040000fa
:0200000401f009
:040010005bffff0093
:020000040000fa
:0200000401f009
:040014007fffff006b
:020000040000fa
:0200000401f009
:04001800cfffff0017
:020000040000fa
:0200000401f009
:04001c00deffff0004
:020000040000fa
:0200000401f009
:04002000cfffff000f
:00000001FF
